{
	"data": {
		"bytecode": {
			"linkReferences": {},
			"object": "608060405234801561000f575f80fd5b506101e18061001d5f395ff3fe608060405234801561000f575f80fd5b506004361061004a575f3560e01c80634e69d5601461004e5780634f245ef71461006c57806352df9fe5146100765780636e6452cb14610080575b5f80fd5b61005661008a565b6040516100639190610192565b60405180910390f35b61007461009e565b005b61007e6100c9565b005b6100886100f4565b005b5f805f9054906101000a900460ff16905090565b60015f806101000a81548160ff021916908360048111156100c2576100c161011f565b5b0217905550565b60045f806101000a81548160ff021916908360048111156100ed576100ec61011f565b5b0217905550565b60035f806101000a81548160ff021916908360048111156101185761011761011f565b5b0217905550565b7f4e487b71000000000000000000000000000000000000000000000000000000005f52602160045260245ffd5b6005811061015d5761015c61011f565b5b50565b5f81905061016d8261014c565b919050565b5f61017c82610160565b9050919050565b61018c81610172565b82525050565b5f6020820190506101a55f830184610183565b9291505056fea26469706673582212202a0e49093e9a9f88bfaf1b2a97983d77539e2ea15d1e73d411e98c23a263a56c64736f6c63430008150033",
			"opcodes": "PUSH1 0x80 PUSH1 0x40 MSTORE CALLVALUE DUP1 ISZERO PUSH2 0xF JUMPI PUSH0 DUP1 REVERT JUMPDEST POP PUSH2 0x1E1 DUP1 PUSH2 0x1D PUSH0 CODECOPY PUSH0 RETURN INVALID PUSH1 0x80 PUSH1 0x40 MSTORE CALLVALUE DUP1 ISZERO PUSH2 0xF JUMPI PUSH0 DUP1 REVERT JUMPDEST POP PUSH1 0x4 CALLDATASIZE LT PUSH2 0x4A JUMPI PUSH0 CALLDATALOAD PUSH1 0xE0 SHR DUP1 PUSH4 0x4E69D560 EQ PUSH2 0x4E JUMPI DUP1 PUSH4 0x4F245EF7 EQ PUSH2 0x6C JUMPI DUP1 PUSH4 0x52DF9FE5 EQ PUSH2 0x76 JUMPI DUP1 PUSH4 0x6E6452CB EQ PUSH2 0x80 JUMPI JUMPDEST PUSH0 DUP1 REVERT JUMPDEST PUSH2 0x56 PUSH2 0x8A JUMP JUMPDEST PUSH1 0x40 MLOAD PUSH2 0x63 SWAP2 SWAP1 PUSH2 0x192 JUMP JUMPDEST PUSH1 0x40 MLOAD DUP1 SWAP2 SUB SWAP1 RETURN JUMPDEST PUSH2 0x74 PUSH2 0x9E JUMP JUMPDEST STOP JUMPDEST PUSH2 0x7E PUSH2 0xC9 JUMP JUMPDEST STOP JUMPDEST PUSH2 0x88 PUSH2 0xF4 JUMP JUMPDEST STOP JUMPDEST PUSH0 DUP1 PUSH0 SWAP1 SLOAD SWAP1 PUSH2 0x100 EXP SWAP1 DIV PUSH1 0xFF AND SWAP1 POP SWAP1 JUMP JUMPDEST PUSH1 0x1 PUSH0 DUP1 PUSH2 0x100 EXP DUP2 SLOAD DUP2 PUSH1 0xFF MUL NOT AND SWAP1 DUP4 PUSH1 0x4 DUP2 GT ISZERO PUSH2 0xC2 JUMPI PUSH2 0xC1 PUSH2 0x11F JUMP JUMPDEST JUMPDEST MUL OR SWAP1 SSTORE POP JUMP JUMPDEST PUSH1 0x4 PUSH0 DUP1 PUSH2 0x100 EXP DUP2 SLOAD DUP2 PUSH1 0xFF MUL NOT AND SWAP1 DUP4 PUSH1 0x4 DUP2 GT ISZERO PUSH2 0xED JUMPI PUSH2 0xEC PUSH2 0x11F JUMP JUMPDEST JUMPDEST MUL OR SWAP1 SSTORE POP JUMP JUMPDEST PUSH1 0x3 PUSH0 DUP1 PUSH2 0x100 EXP DUP2 SLOAD DUP2 PUSH1 0xFF MUL NOT AND SWAP1 DUP4 PUSH1 0x4 DUP2 GT ISZERO PUSH2 0x118 JUMPI PUSH2 0x117 PUSH2 0x11F JUMP JUMPDEST JUMPDEST MUL OR SWAP1 SSTORE POP JUMP JUMPDEST PUSH32 0x4E487B7100000000000000000000000000000000000000000000000000000000 PUSH0 MSTORE PUSH1 0x21 PUSH1 0x4 MSTORE PUSH1 0x24 PUSH0 REVERT JUMPDEST PUSH1 0x5 DUP2 LT PUSH2 0x15D JUMPI PUSH2 0x15C PUSH2 0x11F JUMP JUMPDEST JUMPDEST POP JUMP JUMPDEST PUSH0 DUP2 SWAP1 POP PUSH2 0x16D DUP3 PUSH2 0x14C JUMP JUMPDEST SWAP2 SWAP1 POP JUMP JUMPDEST PUSH0 PUSH2 0x17C DUP3 PUSH2 0x160 JUMP JUMPDEST SWAP1 POP SWAP2 SWAP1 POP JUMP JUMPDEST PUSH2 0x18C DUP2 PUSH2 0x172 JUMP JUMPDEST DUP3 MSTORE POP POP JUMP JUMPDEST PUSH0 PUSH1 0x20 DUP3 ADD SWAP1 POP PUSH2 0x1A5 PUSH0 DUP4 ADD DUP5 PUSH2 0x183 JUMP JUMPDEST SWAP3 SWAP2 POP POP JUMP INVALID LOG2 PUSH5 0x6970667358 0x22 SLT KECCAK256 0x2A 0xE 0x49 MULMOD RETURNDATACOPY SWAP11 SWAP16 DUP9 0xBF 0xAF SHL 0x2A SWAP8 SWAP9 RETURNDATASIZE PUSH24 0x539E2EA15D1E73D411E98C23A263A56C64736F6C63430008 ISZERO STOP CALLER "
		},
		"gasEstimates": {
			"creation": {
				"codeDepositCost": "96200",
				"executionCost": "145",
				"totalCost": "96345"
			},
			"external": {
				"Bid()": "24473",
				"SoldOut()": "24451",
				"auctionStart()": "24429",
				"getStatus()": "2539"
			}
		},
		"methodIdentifiers": {
			"Bid()": "6e6452cb",
			"SoldOut()": "52df9fe5",
			"auctionStart()": "4f245ef7",
			"getStatus()": "4e69d560"
		}
	},
	"abi": [
		{
			"inputs": [],
			"name": "Bid",
			"outputs": [],
			"stateMutability": "nonpayable",
			"type": "function"
		},
		{
			"inputs": [],
			"name": "SoldOut",
			"outputs": [],
			"stateMutability": "nonpayable",
			"type": "function"
		},
		{
			"inputs": [],
			"name": "auctionStart",
			"outputs": [],
			"stateMutability": "nonpayable",
			"type": "function"
		},
		{
			"inputs": [],
			"name": "getStatus",
			"outputs": [
				{
					"internalType": "enum Enum.Status",
					"name": "",
					"type": "uint8"
				}
			],
			"stateMutability": "view",
			"type": "function"
		}
	]
}