{
	"data": {
		"bytecode": {
			"linkReferences": {},
			"object": "608060405234801561000f575f80fd5b506103e8600281905550610a52806100265f395ff3fe608060405234801561000f575f80fd5b506004361061007b575f3560e01c8063512c009a11610059578063512c009a146100d857806380145671146100f6578063b4d9246914610100578063cbf2dabb1461011e5761007b565b806320e6984a1461007f578063216dbcaf1461009e57806340b2b8ea146100ba575b5f80fd5b61008761013c565b60405161009592919061047a565b60405180910390f35b6100b860048036038101906100b3919061060f565b6101d2565b005b6100c26101f0565b6040516100cf9190610669565b60405180910390f35b6100e06101f6565b6040516100ed9190610713565b60405180910390f35b6100fe6102a8565b005b610108610323565b6040516101159190610733565b60405180910390f35b6101266103b4565b6040516101339190610669565b60405180910390f35b5f805f01805461014b90610780565b80601f016020809104026020016040519081016040528092919081815260200182805461017790610780565b80156101c25780601f10610199576101008083540402835291602001916101c2565b820191905f5260205f20905b8154815290600101906020018083116101a557829003601f168201915b5050505050908060010154905082565b815f800190816101e2919061094d565b50805f600101819055505050565b60025481565b6101fe6103bf565b5f6040518060400160405290815f8201805461021990610780565b80601f016020809104026020016040519081016040528092919081815260200182805461024590610780565b80156102905780601f1061026757610100808354040283529160200191610290565b820191905f5260205f20905b81548152906001019060200180831161027357829003601f168201915b50505050508152602001600182015481525050905090565b6102b06103bf565b60405180604001604052806040518060400160405280600481526020017f746f7931000000000000000000000000000000000000000000000000000000008152508152602001600a8152509050805f80820151815f019081610312919061094d565b506020820151816001015590505050565b60605f8001805461033390610780565b80601f016020809104026020016040519081016040528092919081815260200182805461035f90610780565b80156103aa5780601f10610381576101008083540402835291602001916103aa565b820191905f5260205f20905b81548152906001019060200180831161038d57829003601f168201915b5050505050905090565b5f8060010154905090565b6040518060400160405280606081526020015f81525090565b5f81519050919050565b5f82825260208201905092915050565b5f5b8381101561040f5780820151818401526020810190506103f4565b5f8484015250505050565b5f601f19601f8301169050919050565b5f610434826103d8565b61043e81856103e2565b935061044e8185602086016103f2565b6104578161041a565b840191505092915050565b5f819050919050565b61047481610462565b82525050565b5f6040820190508181035f830152610492818561042a565b90506104a1602083018461046b565b9392505050565b5f604051905090565b5f80fd5b5f80fd5b5f80fd5b5f80fd5b7f4e487b71000000000000000000000000000000000000000000000000000000005f52604160045260245ffd5b6104f78261041a565b810181811067ffffffffffffffff82111715610516576105156104c1565b5b80604052505050565b5f6105286104a8565b905061053482826104ee565b919050565b5f67ffffffffffffffff821115610553576105526104c1565b5b61055c8261041a565b9050602081019050919050565b828183375f83830152505050565b5f61058961058484610539565b61051f565b9050828152602081018484840111156105a5576105a46104bd565b5b6105b0848285610569565b509392505050565b5f82601f8301126105cc576105cb6104b9565b5b81356105dc848260208601610577565b91505092915050565b6105ee81610462565b81146105f8575f80fd5b50565b5f81359050610609816105e5565b92915050565b5f8060408385031215610625576106246104b1565b5b5f83013567ffffffffffffffff811115610642576106416104b5565b5b61064e858286016105b8565b925050602061065f858286016105fb565b9150509250929050565b5f60208201905061067c5f83018461046b565b92915050565b5f82825260208201905092915050565b5f61069c826103d8565b6106a68185610682565b93506106b68185602086016103f2565b6106bf8161041a565b840191505092915050565b6106d381610462565b82525050565b5f604083015f8301518482035f8601526106f38282610692565b915050602083015161070860208601826106ca565b508091505092915050565b5f6020820190508181035f83015261072b81846106d9565b905092915050565b5f6020820190508181035f83015261074b818461042a565b905092915050565b7f4e487b71000000000000000000000000000000000000000000000000000000005f52602260045260245ffd5b5f600282049050600182168061079757607f821691505b6020821081036107aa576107a9610753565b5b50919050565b5f819050815f5260205f209050919050565b5f6020601f8301049050919050565b5f82821b905092915050565b5f6008830261080c7fffffffffffffffffffffffffffffffffffffffffffffffffffffffffffffffff826107d1565b61081686836107d1565b95508019841693508086168417925050509392505050565b5f819050919050565b5f61085161084c61084784610462565b61082e565b610462565b9050919050565b5f819050919050565b61086a83610837565b61087e61087682610858565b8484546107dd565b825550505050565b5f90565b610892610886565b61089d818484610861565b505050565b5b818110156108c0576108b55f8261088a565b6001810190506108a3565b5050565b601f821115610905576108d6816107b0565b6108df846107c2565b810160208510156108ee578190505b6109026108fa856107c2565b8301826108a2565b50505b505050565b5f82821c905092915050565b5f6109255f198460080261090a565b1980831691505092915050565b5f61093d8383610916565b9150826002028217905092915050565b610956826103d8565b67ffffffffffffffff81111561096f5761096e6104c1565b5b6109798254610780565b6109848282856108c4565b5f60209050601f8311600181146109b5575f84156109a3578287015190505b6109ad8582610932565b865550610a14565b601f1984166109c3866107b0565b5f5b828110156109ea578489015182556001820191506020850194506020810190506109c5565b86831015610a075784890151610a03601f891682610916565b8355505b6001600288020188555050505b50505050505056fea2646970667358221220d669b56d4a1881850be7288be6b2b85e5886815f35f1b14080b0322446e8bd2d64736f6c63430008150033",
			"opcodes": "PUSH1 0x80 PUSH1 0x40 MSTORE CALLVALUE DUP1 ISZERO PUSH2 0xF JUMPI PUSH0 DUP1 REVERT JUMPDEST POP PUSH2 0x3E8 PUSH1 0x2 DUP2 SWAP1 SSTORE POP PUSH2 0xA52 DUP1 PUSH2 0x26 PUSH0 CODECOPY PUSH0 RETURN INVALID PUSH1 0x80 PUSH1 0x40 MSTORE CALLVALUE DUP1 ISZERO PUSH2 0xF JUMPI PUSH0 DUP1 REVERT JUMPDEST POP PUSH1 0x4 CALLDATASIZE LT PUSH2 0x7B JUMPI PUSH0 CALLDATALOAD PUSH1 0xE0 SHR DUP1 PUSH4 0x512C009A GT PUSH2 0x59 JUMPI DUP1 PUSH4 0x512C009A EQ PUSH2 0xD8 JUMPI DUP1 PUSH4 0x80145671 EQ PUSH2 0xF6 JUMPI DUP1 PUSH4 0xB4D92469 EQ PUSH2 0x100 JUMPI DUP1 PUSH4 0xCBF2DABB EQ PUSH2 0x11E JUMPI PUSH2 0x7B JUMP JUMPDEST DUP1 PUSH4 0x20E6984A EQ PUSH2 0x7F JUMPI DUP1 PUSH4 0x216DBCAF EQ PUSH2 0x9E JUMPI DUP1 PUSH4 0x40B2B8EA EQ PUSH2 0xBA JUMPI JUMPDEST PUSH0 DUP1 REVERT JUMPDEST PUSH2 0x87 PUSH2 0x13C JUMP JUMPDEST PUSH1 0x40 MLOAD PUSH2 0x95 SWAP3 SWAP2 SWAP1 PUSH2 0x47A JUMP JUMPDEST PUSH1 0x40 MLOAD DUP1 SWAP2 SUB SWAP1 RETURN JUMPDEST PUSH2 0xB8 PUSH1 0x4 DUP1 CALLDATASIZE SUB DUP2 ADD SWAP1 PUSH2 0xB3 SWAP2 SWAP1 PUSH2 0x60F JUMP JUMPDEST PUSH2 0x1D2 JUMP JUMPDEST STOP JUMPDEST PUSH2 0xC2 PUSH2 0x1F0 JUMP JUMPDEST PUSH1 0x40 MLOAD PUSH2 0xCF SWAP2 SWAP1 PUSH2 0x669 JUMP JUMPDEST PUSH1 0x40 MLOAD DUP1 SWAP2 SUB SWAP1 RETURN JUMPDEST PUSH2 0xE0 PUSH2 0x1F6 JUMP JUMPDEST PUSH1 0x40 MLOAD PUSH2 0xED SWAP2 SWAP1 PUSH2 0x713 JUMP JUMPDEST PUSH1 0x40 MLOAD DUP1 SWAP2 SUB SWAP1 RETURN JUMPDEST PUSH2 0xFE PUSH2 0x2A8 JUMP JUMPDEST STOP JUMPDEST PUSH2 0x108 PUSH2 0x323 JUMP JUMPDEST PUSH1 0x40 MLOAD PUSH2 0x115 SWAP2 SWAP1 PUSH2 0x733 JUMP JUMPDEST PUSH1 0x40 MLOAD DUP1 SWAP2 SUB SWAP1 RETURN JUMPDEST PUSH2 0x126 PUSH2 0x3B4 JUMP JUMPDEST PUSH1 0x40 MLOAD PUSH2 0x133 SWAP2 SWAP1 PUSH2 0x669 JUMP JUMPDEST PUSH1 0x40 MLOAD DUP1 SWAP2 SUB SWAP1 RETURN JUMPDEST PUSH0 DUP1 PUSH0 ADD DUP1 SLOAD PUSH2 0x14B SWAP1 PUSH2 0x780 JUMP JUMPDEST DUP1 PUSH1 0x1F ADD PUSH1 0x20 DUP1 SWAP2 DIV MUL PUSH1 0x20 ADD PUSH1 0x40 MLOAD SWAP1 DUP2 ADD PUSH1 0x40 MSTORE DUP1 SWAP3 SWAP2 SWAP1 DUP2 DUP2 MSTORE PUSH1 0x20 ADD DUP3 DUP1 SLOAD PUSH2 0x177 SWAP1 PUSH2 0x780 JUMP JUMPDEST DUP1 ISZERO PUSH2 0x1C2 JUMPI DUP1 PUSH1 0x1F LT PUSH2 0x199 JUMPI PUSH2 0x100 DUP1 DUP4 SLOAD DIV MUL DUP4 MSTORE SWAP2 PUSH1 0x20 ADD SWAP2 PUSH2 0x1C2 JUMP JUMPDEST DUP3 ADD SWAP2 SWAP1 PUSH0 MSTORE PUSH1 0x20 PUSH0 KECCAK256 SWAP1 JUMPDEST DUP2 SLOAD DUP2 MSTORE SWAP1 PUSH1 0x1 ADD SWAP1 PUSH1 0x20 ADD DUP1 DUP4 GT PUSH2 0x1A5 JUMPI DUP3 SWAP1 SUB PUSH1 0x1F AND DUP3 ADD SWAP2 JUMPDEST POP POP POP POP POP SWAP1 DUP1 PUSH1 0x1 ADD SLOAD SWAP1 POP DUP3 JUMP JUMPDEST DUP2 PUSH0 DUP1 ADD SWAP1 DUP2 PUSH2 0x1E2 SWAP2 SWAP1 PUSH2 0x94D JUMP JUMPDEST POP DUP1 PUSH0 PUSH1 0x1 ADD DUP2 SWAP1 SSTORE POP POP POP JUMP JUMPDEST PUSH1 0x2 SLOAD DUP2 JUMP JUMPDEST PUSH2 0x1FE PUSH2 0x3BF JUMP JUMPDEST PUSH0 PUSH1 0x40 MLOAD DUP1 PUSH1 0x40 ADD PUSH1 0x40 MSTORE SWAP1 DUP2 PUSH0 DUP3 ADD DUP1 SLOAD PUSH2 0x219 SWAP1 PUSH2 0x780 JUMP JUMPDEST DUP1 PUSH1 0x1F ADD PUSH1 0x20 DUP1 SWAP2 DIV MUL PUSH1 0x20 ADD PUSH1 0x40 MLOAD SWAP1 DUP2 ADD PUSH1 0x40 MSTORE DUP1 SWAP3 SWAP2 SWAP1 DUP2 DUP2 MSTORE PUSH1 0x20 ADD DUP3 DUP1 SLOAD PUSH2 0x245 SWAP1 PUSH2 0x780 JUMP JUMPDEST DUP1 ISZERO PUSH2 0x290 JUMPI DUP1 PUSH1 0x1F LT PUSH2 0x267 JUMPI PUSH2 0x100 DUP1 DUP4 SLOAD DIV MUL DUP4 MSTORE SWAP2 PUSH1 0x20 ADD SWAP2 PUSH2 0x290 JUMP JUMPDEST DUP3 ADD SWAP2 SWAP1 PUSH0 MSTORE PUSH1 0x20 PUSH0 KECCAK256 SWAP1 JUMPDEST DUP2 SLOAD DUP2 MSTORE SWAP1 PUSH1 0x1 ADD SWAP1 PUSH1 0x20 ADD DUP1 DUP4 GT PUSH2 0x273 JUMPI DUP3 SWAP1 SUB PUSH1 0x1F AND DUP3 ADD SWAP2 JUMPDEST POP POP POP POP POP DUP2 MSTORE PUSH1 0x20 ADD PUSH1 0x1 DUP3 ADD SLOAD DUP2 MSTORE POP POP SWAP1 POP SWAP1 JUMP JUMPDEST PUSH2 0x2B0 PUSH2 0x3BF JUMP JUMPDEST PUSH1 0x40 MLOAD DUP1 PUSH1 0x40 ADD PUSH1 0x40 MSTORE DUP1 PUSH1 0x40 MLOAD DUP1 PUSH1 0x40 ADD PUSH1 0x40 MSTORE DUP1 PUSH1 0x4 DUP2 MSTORE PUSH1 0x20 ADD PUSH32 0x746F793100000000000000000000000000000000000000000000000000000000 DUP2 MSTORE POP DUP2 MSTORE PUSH1 0x20 ADD PUSH1 0xA DUP2 MSTORE POP SWAP1 POP DUP1 PUSH0 DUP1 DUP3 ADD MLOAD DUP2 PUSH0 ADD SWAP1 DUP2 PUSH2 0x312 SWAP2 SWAP1 PUSH2 0x94D JUMP JUMPDEST POP PUSH1 0x20 DUP3 ADD MLOAD DUP2 PUSH1 0x1 ADD SSTORE SWAP1 POP POP POP JUMP JUMPDEST PUSH1 0x60 PUSH0 DUP1 ADD DUP1 SLOAD PUSH2 0x333 SWAP1 PUSH2 0x780 JUMP JUMPDEST DUP1 PUSH1 0x1F ADD PUSH1 0x20 DUP1 SWAP2 DIV MUL PUSH1 0x20 ADD PUSH1 0x40 MLOAD SWAP1 DUP2 ADD PUSH1 0x40 MSTORE DUP1 SWAP3 SWAP2 SWAP1 DUP2 DUP2 MSTORE PUSH1 0x20 ADD DUP3 DUP1 SLOAD PUSH2 0x35F SWAP1 PUSH2 0x780 JUMP JUMPDEST DUP1 ISZERO PUSH2 0x3AA JUMPI DUP1 PUSH1 0x1F LT PUSH2 0x381 JUMPI PUSH2 0x100 DUP1 DUP4 SLOAD DIV MUL DUP4 MSTORE SWAP2 PUSH1 0x20 ADD SWAP2 PUSH2 0x3AA JUMP JUMPDEST DUP3 ADD SWAP2 SWAP1 PUSH0 MSTORE PUSH1 0x20 PUSH0 KECCAK256 SWAP1 JUMPDEST DUP2 SLOAD DUP2 MSTORE SWAP1 PUSH1 0x1 ADD SWAP1 PUSH1 0x20 ADD DUP1 DUP4 GT PUSH2 0x38D JUMPI DUP3 SWAP1 SUB PUSH1 0x1F AND DUP3 ADD SWAP2 JUMPDEST POP POP POP POP POP SWAP1 POP SWAP1 JUMP JUMPDEST PUSH0 DUP1 PUSH1 0x1 ADD SLOAD SWAP1 POP SWAP1 JUMP JUMPDEST PUSH1 0x40 MLOAD DUP1 PUSH1 0x40 ADD PUSH1 0x40 MSTORE DUP1 PUSH1 0x60 DUP2 MSTORE PUSH1 0x20 ADD PUSH0 DUP2 MSTORE POP SWAP1 JUMP JUMPDEST PUSH0 DUP2 MLOAD SWAP1 POP SWAP2 SWAP1 POP JUMP JUMPDEST PUSH0 DUP3 DUP3 MSTORE PUSH1 0x20 DUP3 ADD SWAP1 POP SWAP3 SWAP2 POP POP JUMP JUMPDEST PUSH0 JUMPDEST DUP4 DUP2 LT ISZERO PUSH2 0x40F JUMPI DUP1 DUP3 ADD MLOAD DUP2 DUP5 ADD MSTORE PUSH1 0x20 DUP2 ADD SWAP1 POP PUSH2 0x3F4 JUMP JUMPDEST PUSH0 DUP5 DUP5 ADD MSTORE POP POP POP POP JUMP JUMPDEST PUSH0 PUSH1 0x1F NOT PUSH1 0x1F DUP4 ADD AND SWAP1 POP SWAP2 SWAP1 POP JUMP JUMPDEST PUSH0 PUSH2 0x434 DUP3 PUSH2 0x3D8 JUMP JUMPDEST PUSH2 0x43E DUP2 DUP6 PUSH2 0x3E2 JUMP JUMPDEST SWAP4 POP PUSH2 0x44E DUP2 DUP6 PUSH1 0x20 DUP7 ADD PUSH2 0x3F2 JUMP JUMPDEST PUSH2 0x457 DUP2 PUSH2 0x41A JUMP JUMPDEST DUP5 ADD SWAP2 POP POP SWAP3 SWAP2 POP POP JUMP JUMPDEST PUSH0 DUP2 SWAP1 POP SWAP2 SWAP1 POP JUMP JUMPDEST PUSH2 0x474 DUP2 PUSH2 0x462 JUMP JUMPDEST DUP3 MSTORE POP POP JUMP JUMPDEST PUSH0 PUSH1 0x40 DUP3 ADD SWAP1 POP DUP2 DUP2 SUB PUSH0 DUP4 ADD MSTORE PUSH2 0x492 DUP2 DUP6 PUSH2 0x42A JUMP JUMPDEST SWAP1 POP PUSH2 0x4A1 PUSH1 0x20 DUP4 ADD DUP5 PUSH2 0x46B JUMP JUMPDEST SWAP4 SWAP3 POP POP POP JUMP JUMPDEST PUSH0 PUSH1 0x40 MLOAD SWAP1 POP SWAP1 JUMP JUMPDEST PUSH0 DUP1 REVERT JUMPDEST PUSH0 DUP1 REVERT JUMPDEST PUSH0 DUP1 REVERT JUMPDEST PUSH0 DUP1 REVERT JUMPDEST PUSH32 0x4E487B7100000000000000000000000000000000000000000000000000000000 PUSH0 MSTORE PUSH1 0x41 PUSH1 0x4 MSTORE PUSH1 0x24 PUSH0 REVERT JUMPDEST PUSH2 0x4F7 DUP3 PUSH2 0x41A JUMP JUMPDEST DUP2 ADD DUP2 DUP2 LT PUSH8 0xFFFFFFFFFFFFFFFF DUP3 GT OR ISZERO PUSH2 0x516 JUMPI PUSH2 0x515 PUSH2 0x4C1 JUMP JUMPDEST JUMPDEST DUP1 PUSH1 0x40 MSTORE POP POP POP JUMP JUMPDEST PUSH0 PUSH2 0x528 PUSH2 0x4A8 JUMP JUMPDEST SWAP1 POP PUSH2 0x534 DUP3 DUP3 PUSH2 0x4EE JUMP JUMPDEST SWAP2 SWAP1 POP JUMP JUMPDEST PUSH0 PUSH8 0xFFFFFFFFFFFFFFFF DUP3 GT ISZERO PUSH2 0x553 JUMPI PUSH2 0x552 PUSH2 0x4C1 JUMP JUMPDEST JUMPDEST PUSH2 0x55C DUP3 PUSH2 0x41A JUMP JUMPDEST SWAP1 POP PUSH1 0x20 DUP2 ADD SWAP1 POP SWAP2 SWAP1 POP JUMP JUMPDEST DUP3 DUP2 DUP4 CALLDATACOPY PUSH0 DUP4 DUP4 ADD MSTORE POP POP POP JUMP JUMPDEST PUSH0 PUSH2 0x589 PUSH2 0x584 DUP5 PUSH2 0x539 JUMP JUMPDEST PUSH2 0x51F JUMP JUMPDEST SWAP1 POP DUP3 DUP2 MSTORE PUSH1 0x20 DUP2 ADD DUP5 DUP5 DUP5 ADD GT ISZERO PUSH2 0x5A5 JUMPI PUSH2 0x5A4 PUSH2 0x4BD JUMP JUMPDEST JUMPDEST PUSH2 0x5B0 DUP5 DUP3 DUP6 PUSH2 0x569 JUMP JUMPDEST POP SWAP4 SWAP3 POP POP POP JUMP JUMPDEST PUSH0 DUP3 PUSH1 0x1F DUP4 ADD SLT PUSH2 0x5CC JUMPI PUSH2 0x5CB PUSH2 0x4B9 JUMP JUMPDEST JUMPDEST DUP2 CALLDATALOAD PUSH2 0x5DC DUP5 DUP3 PUSH1 0x20 DUP7 ADD PUSH2 0x577 JUMP JUMPDEST SWAP2 POP POP SWAP3 SWAP2 POP POP JUMP JUMPDEST PUSH2 0x5EE DUP2 PUSH2 0x462 JUMP JUMPDEST DUP2 EQ PUSH2 0x5F8 JUMPI PUSH0 DUP1 REVERT JUMPDEST POP JUMP JUMPDEST PUSH0 DUP2 CALLDATALOAD SWAP1 POP PUSH2 0x609 DUP2 PUSH2 0x5E5 JUMP JUMPDEST SWAP3 SWAP2 POP POP JUMP JUMPDEST PUSH0 DUP1 PUSH1 0x40 DUP4 DUP6 SUB SLT ISZERO PUSH2 0x625 JUMPI PUSH2 0x624 PUSH2 0x4B1 JUMP JUMPDEST JUMPDEST PUSH0 DUP4 ADD CALLDATALOAD PUSH8 0xFFFFFFFFFFFFFFFF DUP2 GT ISZERO PUSH2 0x642 JUMPI PUSH2 0x641 PUSH2 0x4B5 JUMP JUMPDEST JUMPDEST PUSH2 0x64E DUP6 DUP3 DUP7 ADD PUSH2 0x5B8 JUMP JUMPDEST SWAP3 POP POP PUSH1 0x20 PUSH2 0x65F DUP6 DUP3 DUP7 ADD PUSH2 0x5FB JUMP JUMPDEST SWAP2 POP POP SWAP3 POP SWAP3 SWAP1 POP JUMP JUMPDEST PUSH0 PUSH1 0x20 DUP3 ADD SWAP1 POP PUSH2 0x67C PUSH0 DUP4 ADD DUP5 PUSH2 0x46B JUMP JUMPDEST SWAP3 SWAP2 POP POP JUMP JUMPDEST PUSH0 DUP3 DUP3 MSTORE PUSH1 0x20 DUP3 ADD SWAP1 POP SWAP3 SWAP2 POP POP JUMP JUMPDEST PUSH0 PUSH2 0x69C DUP3 PUSH2 0x3D8 JUMP JUMPDEST PUSH2 0x6A6 DUP2 DUP6 PUSH2 0x682 JUMP JUMPDEST SWAP4 POP PUSH2 0x6B6 DUP2 DUP6 PUSH1 0x20 DUP7 ADD PUSH2 0x3F2 JUMP JUMPDEST PUSH2 0x6BF DUP2 PUSH2 0x41A JUMP JUMPDEST DUP5 ADD SWAP2 POP POP SWAP3 SWAP2 POP POP JUMP JUMPDEST PUSH2 0x6D3 DUP2 PUSH2 0x462 JUMP JUMPDEST DUP3 MSTORE POP POP JUMP JUMPDEST PUSH0 PUSH1 0x40 DUP4 ADD PUSH0 DUP4 ADD MLOAD DUP5 DUP3 SUB PUSH0 DUP7 ADD MSTORE PUSH2 0x6F3 DUP3 DUP3 PUSH2 0x692 JUMP JUMPDEST SWAP2 POP POP PUSH1 0x20 DUP4 ADD MLOAD PUSH2 0x708 PUSH1 0x20 DUP7 ADD DUP3 PUSH2 0x6CA JUMP JUMPDEST POP DUP1 SWAP2 POP POP SWAP3 SWAP2 POP POP JUMP JUMPDEST PUSH0 PUSH1 0x20 DUP3 ADD SWAP1 POP DUP2 DUP2 SUB PUSH0 DUP4 ADD MSTORE PUSH2 0x72B DUP2 DUP5 PUSH2 0x6D9 JUMP JUMPDEST SWAP1 POP SWAP3 SWAP2 POP POP JUMP JUMPDEST PUSH0 PUSH1 0x20 DUP3 ADD SWAP1 POP DUP2 DUP2 SUB PUSH0 DUP4 ADD MSTORE PUSH2 0x74B DUP2 DUP5 PUSH2 0x42A JUMP JUMPDEST SWAP1 POP SWAP3 SWAP2 POP POP JUMP JUMPDEST PUSH32 0x4E487B7100000000000000000000000000000000000000000000000000000000 PUSH0 MSTORE PUSH1 0x22 PUSH1 0x4 MSTORE PUSH1 0x24 PUSH0 REVERT JUMPDEST PUSH0 PUSH1 0x2 DUP3 DIV SWAP1 POP PUSH1 0x1 DUP3 AND DUP1 PUSH2 0x797 JUMPI PUSH1 0x7F DUP3 AND SWAP2 POP JUMPDEST PUSH1 0x20 DUP3 LT DUP2 SUB PUSH2 0x7AA JUMPI PUSH2 0x7A9 PUSH2 0x753 JUMP JUMPDEST JUMPDEST POP SWAP2 SWAP1 POP JUMP JUMPDEST PUSH0 DUP2 SWAP1 POP DUP2 PUSH0 MSTORE PUSH1 0x20 PUSH0 KECCAK256 SWAP1 POP SWAP2 SWAP1 POP JUMP JUMPDEST PUSH0 PUSH1 0x20 PUSH1 0x1F DUP4 ADD DIV SWAP1 POP SWAP2 SWAP1 POP JUMP JUMPDEST PUSH0 DUP3 DUP3 SHL SWAP1 POP SWAP3 SWAP2 POP POP JUMP JUMPDEST PUSH0 PUSH1 0x8 DUP4 MUL PUSH2 0x80C PUSH32 0xFFFFFFFFFFFFFFFFFFFFFFFFFFFFFFFFFFFFFFFFFFFFFFFFFFFFFFFFFFFFFFFF DUP3 PUSH2 0x7D1 JUMP JUMPDEST PUSH2 0x816 DUP7 DUP4 PUSH2 0x7D1 JUMP JUMPDEST SWAP6 POP DUP1 NOT DUP5 AND SWAP4 POP DUP1 DUP7 AND DUP5 OR SWAP3 POP POP POP SWAP4 SWAP3 POP POP POP JUMP JUMPDEST PUSH0 DUP2 SWAP1 POP SWAP2 SWAP1 POP JUMP JUMPDEST PUSH0 PUSH2 0x851 PUSH2 0x84C PUSH2 0x847 DUP5 PUSH2 0x462 JUMP JUMPDEST PUSH2 0x82E JUMP JUMPDEST PUSH2 0x462 JUMP JUMPDEST SWAP1 POP SWAP2 SWAP1 POP JUMP JUMPDEST PUSH0 DUP2 SWAP1 POP SWAP2 SWAP1 POP JUMP JUMPDEST PUSH2 0x86A DUP4 PUSH2 0x837 JUMP JUMPDEST PUSH2 0x87E PUSH2 0x876 DUP3 PUSH2 0x858 JUMP JUMPDEST DUP5 DUP5 SLOAD PUSH2 0x7DD JUMP JUMPDEST DUP3 SSTORE POP POP POP POP JUMP JUMPDEST PUSH0 SWAP1 JUMP JUMPDEST PUSH2 0x892 PUSH2 0x886 JUMP JUMPDEST PUSH2 0x89D DUP2 DUP5 DUP5 PUSH2 0x861 JUMP JUMPDEST POP POP POP JUMP JUMPDEST JUMPDEST DUP2 DUP2 LT ISZERO PUSH2 0x8C0 JUMPI PUSH2 0x8B5 PUSH0 DUP3 PUSH2 0x88A JUMP JUMPDEST PUSH1 0x1 DUP2 ADD SWAP1 POP PUSH2 0x8A3 JUMP JUMPDEST POP POP JUMP JUMPDEST PUSH1 0x1F DUP3 GT ISZERO PUSH2 0x905 JUMPI PUSH2 0x8D6 DUP2 PUSH2 0x7B0 JUMP JUMPDEST PUSH2 0x8DF DUP5 PUSH2 0x7C2 JUMP JUMPDEST DUP2 ADD PUSH1 0x20 DUP6 LT ISZERO PUSH2 0x8EE JUMPI DUP2 SWAP1 POP JUMPDEST PUSH2 0x902 PUSH2 0x8FA DUP6 PUSH2 0x7C2 JUMP JUMPDEST DUP4 ADD DUP3 PUSH2 0x8A2 JUMP JUMPDEST POP POP JUMPDEST POP POP POP JUMP JUMPDEST PUSH0 DUP3 DUP3 SHR SWAP1 POP SWAP3 SWAP2 POP POP JUMP JUMPDEST PUSH0 PUSH2 0x925 PUSH0 NOT DUP5 PUSH1 0x8 MUL PUSH2 0x90A JUMP JUMPDEST NOT DUP1 DUP4 AND SWAP2 POP POP SWAP3 SWAP2 POP POP JUMP JUMPDEST PUSH0 PUSH2 0x93D DUP4 DUP4 PUSH2 0x916 JUMP JUMPDEST SWAP2 POP DUP3 PUSH1 0x2 MUL DUP3 OR SWAP1 POP SWAP3 SWAP2 POP POP JUMP JUMPDEST PUSH2 0x956 DUP3 PUSH2 0x3D8 JUMP JUMPDEST PUSH8 0xFFFFFFFFFFFFFFFF DUP2 GT ISZERO PUSH2 0x96F JUMPI PUSH2 0x96E PUSH2 0x4C1 JUMP JUMPDEST JUMPDEST PUSH2 0x979 DUP3 SLOAD PUSH2 0x780 JUMP JUMPDEST PUSH2 0x984 DUP3 DUP3 DUP6 PUSH2 0x8C4 JUMP JUMPDEST PUSH0 PUSH1 0x20 SWAP1 POP PUSH1 0x1F DUP4 GT PUSH1 0x1 DUP2 EQ PUSH2 0x9B5 JUMPI PUSH0 DUP5 ISZERO PUSH2 0x9A3 JUMPI DUP3 DUP8 ADD MLOAD SWAP1 POP JUMPDEST PUSH2 0x9AD DUP6 DUP3 PUSH2 0x932 JUMP JUMPDEST DUP7 SSTORE POP PUSH2 0xA14 JUMP JUMPDEST PUSH1 0x1F NOT DUP5 AND PUSH2 0x9C3 DUP7 PUSH2 0x7B0 JUMP JUMPDEST PUSH0 JUMPDEST DUP3 DUP2 LT ISZERO PUSH2 0x9EA JUMPI DUP5 DUP10 ADD MLOAD DUP3 SSTORE PUSH1 0x1 DUP3 ADD SWAP2 POP PUSH1 0x20 DUP6 ADD SWAP5 POP PUSH1 0x20 DUP2 ADD SWAP1 POP PUSH2 0x9C5 JUMP JUMPDEST DUP7 DUP4 LT ISZERO PUSH2 0xA07 JUMPI DUP5 DUP10 ADD MLOAD PUSH2 0xA03 PUSH1 0x1F DUP10 AND DUP3 PUSH2 0x916 JUMP JUMPDEST DUP4 SSTORE POP JUMPDEST PUSH1 0x1 PUSH1 0x2 DUP9 MUL ADD DUP9 SSTORE POP POP POP JUMPDEST POP POP POP POP POP POP JUMP INVALID LOG2 PUSH5 0x6970667358 0x22 SLT KECCAK256 0xD6 PUSH10 0xB56D4A1881850BE7288B 0xE6 0xB2 0xB8 0x5E PC DUP7 DUP2 PUSH0 CALLDATALOAD CALL 0xB1 BLOCKHASH DUP1 0xB0 ORIGIN 0x24 CHAINID 0xE8 0xBD 0x2D PUSH5 0x736F6C6343 STOP ADDMOD ISZERO STOP CALLER "
		},
		"gasEstimates": {
			"creation": {
				"codeDepositCost": "528400",
				"executionCost": "22674",
				"totalCost": "551074"
			},
			"external": {
				"getMainProduct()": "infinite",
				"getMainProductName()": "infinite",
				"getMainProductPrice()": "2504",
				"initProduct()": "infinite",
				"mainProduct()": "infinite",
				"maxProductCount()": "2470",
				"setMainProduct(string,uint256)": "infinite"
			}
		},
		"methodIdentifiers": {
			"getMainProduct()": "512c009a",
			"getMainProductName()": "b4d92469",
			"getMainProductPrice()": "cbf2dabb",
			"initProduct()": "80145671",
			"mainProduct()": "20e6984a",
			"maxProductCount()": "40b2b8ea",
			"setMainProduct(string,uint256)": "216dbcaf"
		}
	},
	"abi": [
		{
			"inputs": [],
			"stateMutability": "nonpayable",
			"type": "constructor"
		},
		{
			"inputs": [],
			"name": "getMainProduct",
			"outputs": [
				{
					"components": [
						{
							"internalType": "string",
							"name": "name",
							"type": "string"
						},
						{
							"internalType": "uint256",
							"name": "price",
							"type": "uint256"
						}
					],
					"internalType": "struct Struct.Product",
					"name": "",
					"type": "tuple"
				}
			],
			"stateMutability": "view",
			"type": "function"
		},
		{
			"inputs": [],
			"name": "getMainProductName",
			"outputs": [
				{
					"internalType": "string",
					"name": "",
					"type": "string"
				}
			],
			"stateMutability": "view",
			"type": "function"
		},
		{
			"inputs": [],
			"name": "getMainProductPrice",
			"outputs": [
				{
					"internalType": "uint256",
					"name": "",
					"type": "uint256"
				}
			],
			"stateMutability": "view",
			"type": "function"
		},
		{
			"inputs": [],
			"name": "initProduct",
			"outputs": [],
			"stateMutability": "nonpayable",
			"type": "function"
		},
		{
			"inputs": [],
			"name": "mainProduct",
			"outputs": [
				{
					"internalType": "string",
					"name": "name",
					"type": "string"
				},
				{
					"internalType": "uint256",
					"name": "price",
					"type": "uint256"
				}
			],
			"stateMutability": "view",
			"type": "function"
		},
		{
			"inputs": [],
			"name": "maxProductCount",
			"outputs": [
				{
					"internalType": "uint256",
					"name": "",
					"type": "uint256"
				}
			],
			"stateMutability": "view",
			"type": "function"
		},
		{
			"inputs": [
				{
					"internalType": "string",
					"name": "_name",
					"type": "string"
				},
				{
					"internalType": "uint256",
					"name": "_price",
					"type": "uint256"
				}
			],
			"name": "setMainProduct",
			"outputs": [],
			"stateMutability": "nonpayable",
			"type": "function"
		}
	]
}