{
	"ex12/ex12.sol": {
		"VariableRange": {
			"abi": [
				{
					"inputs": [],
					"name": "getData",
					"outputs": [
						{
							"internalType": "uint256",
							"name": "",
							"type": "uint256"
						}
					],
					"stateMutability": "view",
					"type": "function"
				},
				{
					"inputs": [],
					"name": "getData2",
					"outputs": [
						{
							"internalType": "uint256",
							"name": "",
							"type": "uint256"
						}
					],
					"stateMutability": "view",
					"type": "function"
				},
				{
					"inputs": [],
					"name": "getData3",
					"outputs": [
						{
							"internalType": "uint256",
							"name": "",
							"type": "uint256"
						}
					],
					"stateMutability": "pure",
					"type": "function"
				}
			],
			"devdoc": {
				"kind": "dev",
				"methods": {},
				"version": 1
			},
			"evm": {
				"assembly": "    /* \"ex12/ex12.sol\":156:622  contract VariableRange {... */\n  mstore(0x40, 0x80)\n    /* \"ex12/ex12.sol\":204:206  10 */\n  0x0a\n    /* \"ex12/ex12.sol\":184:206  uint private data = 10 */\n  0x00\n  sstore\n    /* \"ex12/ex12.sol\":156:622  contract VariableRange {... */\n  callvalue\n  dup1\n  iszero\n  tag_1\n  jumpi\n  0x00\n  dup1\n  revert\ntag_1:\n  pop\n  dataSize(sub_0)\n  dup1\n  dataOffset(sub_0)\n  0x00\n  codecopy\n  0x00\n  return\nstop\n\nsub_0: assembly {\n        /* \"ex12/ex12.sol\":156:622  contract VariableRange {... */\n      mstore(0x40, 0x80)\n      callvalue\n      dup1\n      iszero\n      tag_1\n      jumpi\n      0x00\n      dup1\n      revert\n    tag_1:\n      pop\n      jumpi(tag_2, lt(calldatasize, 0x04))\n      shr(0xe0, calldataload(0x00))\n      dup1\n      0x3bc5de30\n      eq\n      tag_3\n      jumpi\n      dup1\n      0x92f51def\n      eq\n      tag_4\n      jumpi\n      dup1\n      0xa898fd70\n      eq\n      tag_5\n      jumpi\n    tag_2:\n      0x00\n      dup1\n      revert\n        /* \"ex12/ex12.sol\":213:282  function getData() public view returns(uint) {... */\n    tag_3:\n      tag_6\n      tag_7\n      jump\t// in\n    tag_6:\n      mload(0x40)\n      tag_8\n      swap2\n      swap1\n      tag_9\n      jump\t// in\n    tag_8:\n      mload(0x40)\n      dup1\n      swap2\n      sub\n      swap1\n      return\n        /* \"ex12/ex12.sol\":524:619  function getData3() public pure returns(uint) {... */\n    tag_4:\n      tag_10\n      tag_11\n      jump\t// in\n    tag_10:\n      mload(0x40)\n      tag_12\n      swap2\n      swap1\n      tag_9\n      jump\t// in\n    tag_12:\n      mload(0x40)\n      dup1\n      swap2\n      sub\n      swap1\n      return\n        /* \"ex12/ex12.sol\":288:383  function getData2() public view returns(uint) {... */\n    tag_5:\n      tag_13\n      tag_14\n      jump\t// in\n    tag_13:\n      mload(0x40)\n      tag_15\n      swap2\n      swap1\n      tag_9\n      jump\t// in\n    tag_15:\n      mload(0x40)\n      dup1\n      swap2\n      sub\n      swap1\n      return\n        /* \"ex12/ex12.sol\":213:282  function getData() public view returns(uint) {... */\n    tag_7:\n        /* \"ex12/ex12.sol\":252:256  uint */\n      0x00\n        /* \"ex12/ex12.sol\":272:276  data */\n      dup1\n      sload\n        /* \"ex12/ex12.sol\":265:276  return data */\n      swap1\n      pop\n        /* \"ex12/ex12.sol\":213:282  function getData() public view returns(uint) {... */\n      swap1\n      jump\t// out\n        /* \"ex12/ex12.sol\":524:619  function getData3() public pure returns(uint) {... */\n    tag_11:\n        /* \"ex12/ex12.sol\":564:568  uint */\n      0x00\n        /* \"ex12/ex12.sol\":577:586  uint data */\n      dup1\n        /* \"ex12/ex12.sol\":589:590  5 */\n      0x05\n        /* \"ex12/ex12.sol\":577:590  uint data = 5 */\n      swap1\n      pop\n        /* \"ex12/ex12.sol\":604:608  data */\n      dup1\n        /* \"ex12/ex12.sol\":597:608  return data */\n      swap2\n      pop\n      pop\n        /* \"ex12/ex12.sol\":524:619  function getData3() public pure returns(uint) {... */\n      swap1\n      jump\t// out\n        /* \"ex12/ex12.sol\":288:383  function getData2() public view returns(uint) {... */\n    tag_14:\n        /* \"ex12/ex12.sol\":328:332  uint */\n      0x00\n        /* \"ex12/ex12.sol\":341:350  uint data */\n      dup1\n        /* \"ex12/ex12.sol\":353:354  5 */\n      0x05\n        /* \"ex12/ex12.sol\":341:354  uint data = 5 */\n      swap1\n      pop\n        /* \"ex12/ex12.sol\":368:372  data */\n      dup1\n        /* \"ex12/ex12.sol\":361:372  return data */\n      swap2\n      pop\n      pop\n        /* \"ex12/ex12.sol\":288:383  function getData2() public view returns(uint) {... */\n      swap1\n      jump\t// out\n        /* \"#utility.yul\":7:84   */\n    tag_19:\n        /* \"#utility.yul\":44:51   */\n      0x00\n        /* \"#utility.yul\":73:78   */\n      dup2\n        /* \"#utility.yul\":62:78   */\n      swap1\n      pop\n        /* \"#utility.yul\":7:84   */\n      swap2\n      swap1\n      pop\n      jump\t// out\n        /* \"#utility.yul\":90:208   */\n    tag_20:\n        /* \"#utility.yul\":177:201   */\n      tag_24\n        /* \"#utility.yul\":195:200   */\n      dup2\n        /* \"#utility.yul\":177:201   */\n      tag_19\n      jump\t// in\n    tag_24:\n        /* \"#utility.yul\":172:175   */\n      dup3\n        /* \"#utility.yul\":165:202   */\n      mstore\n        /* \"#utility.yul\":90:208   */\n      pop\n      pop\n      jump\t// out\n        /* \"#utility.yul\":214:436   */\n    tag_9:\n        /* \"#utility.yul\":307:311   */\n      0x00\n        /* \"#utility.yul\":345:347   */\n      0x20\n        /* \"#utility.yul\":334:343   */\n      dup3\n        /* \"#utility.yul\":330:348   */\n      add\n        /* \"#utility.yul\":322:348   */\n      swap1\n      pop\n        /* \"#utility.yul\":358:429   */\n      tag_26\n        /* \"#utility.yul\":426:427   */\n      0x00\n        /* \"#utility.yul\":415:424   */\n      dup4\n        /* \"#utility.yul\":411:428   */\n      add\n        /* \"#utility.yul\":402:408   */\n      dup5\n        /* \"#utility.yul\":358:429   */\n      tag_20\n      jump\t// in\n    tag_26:\n        /* \"#utility.yul\":214:436   */\n      swap3\n      swap2\n      pop\n      pop\n      jump\t// out\n\n    auxdata: 0xa26469706673582212209c364cad2aac5f4fc9c1583e3f5673ddbf77fb52fa2fed8c68133d9ae57e1d4a64736f6c63430008150033\n}\n",
				"bytecode": {
					"linkReferences": {},
					"object": "6080604052600a5f55348015610013575f80fd5b50610111806100215f395ff3fe6080604052348015600e575f80fd5b5060043610603a575f3560e01c80633bc5de3014603e57806392f51def146058578063a898fd70146072575b5f80fd5b6044608c565b604051604f919060c4565b60405180910390f35b605e6094565b6040516069919060c4565b60405180910390f35b607860a1565b6040516083919060c4565b60405180910390f35b5f8054905090565b5f80600590508091505090565b5f80600590508091505090565b5f819050919050565b60be8160ae565b82525050565b5f60208201905060d55f83018460b7565b9291505056fea26469706673582212209c364cad2aac5f4fc9c1583e3f5673ddbf77fb52fa2fed8c68133d9ae57e1d4a64736f6c63430008150033",
					"opcodes": "PUSH1 0x80 PUSH1 0x40 MSTORE PUSH1 0xA PUSH0 SSTORE CALLVALUE DUP1 ISZERO PUSH2 0x13 JUMPI PUSH0 DUP1 REVERT JUMPDEST POP PUSH2 0x111 DUP1 PUSH2 0x21 PUSH0 CODECOPY PUSH0 RETURN INVALID PUSH1 0x80 PUSH1 0x40 MSTORE CALLVALUE DUP1 ISZERO PUSH1 0xE JUMPI PUSH0 DUP1 REVERT JUMPDEST POP PUSH1 0x4 CALLDATASIZE LT PUSH1 0x3A JUMPI PUSH0 CALLDATALOAD PUSH1 0xE0 SHR DUP1 PUSH4 0x3BC5DE30 EQ PUSH1 0x3E JUMPI DUP1 PUSH4 0x92F51DEF EQ PUSH1 0x58 JUMPI DUP1 PUSH4 0xA898FD70 EQ PUSH1 0x72 JUMPI JUMPDEST PUSH0 DUP1 REVERT JUMPDEST PUSH1 0x44 PUSH1 0x8C JUMP JUMPDEST PUSH1 0x40 MLOAD PUSH1 0x4F SWAP2 SWAP1 PUSH1 0xC4 JUMP JUMPDEST PUSH1 0x40 MLOAD DUP1 SWAP2 SUB SWAP1 RETURN JUMPDEST PUSH1 0x5E PUSH1 0x94 JUMP JUMPDEST PUSH1 0x40 MLOAD PUSH1 0x69 SWAP2 SWAP1 PUSH1 0xC4 JUMP JUMPDEST PUSH1 0x40 MLOAD DUP1 SWAP2 SUB SWAP1 RETURN JUMPDEST PUSH1 0x78 PUSH1 0xA1 JUMP JUMPDEST PUSH1 0x40 MLOAD PUSH1 0x83 SWAP2 SWAP1 PUSH1 0xC4 JUMP JUMPDEST PUSH1 0x40 MLOAD DUP1 SWAP2 SUB SWAP1 RETURN JUMPDEST PUSH0 DUP1 SLOAD SWAP1 POP SWAP1 JUMP JUMPDEST PUSH0 DUP1 PUSH1 0x5 SWAP1 POP DUP1 SWAP2 POP POP SWAP1 JUMP JUMPDEST PUSH0 DUP1 PUSH1 0x5 SWAP1 POP DUP1 SWAP2 POP POP SWAP1 JUMP JUMPDEST PUSH0 DUP2 SWAP1 POP SWAP2 SWAP1 POP JUMP JUMPDEST PUSH1 0xBE DUP2 PUSH1 0xAE JUMP JUMPDEST DUP3 MSTORE POP POP JUMP JUMPDEST PUSH0 PUSH1 0x20 DUP3 ADD SWAP1 POP PUSH1 0xD5 PUSH0 DUP4 ADD DUP5 PUSH1 0xB7 JUMP JUMPDEST SWAP3 SWAP2 POP POP JUMP INVALID LOG2 PUSH5 0x6970667358 0x22 SLT KECCAK256 SWAP13 CALLDATASIZE 0x4C 0xAD 0x2A 0xAC PUSH0 0x4F 0xC9 0xC1 PC RETURNDATACOPY EXTCODEHASH JUMP PUSH20 0xDDBF77FB52FA2FED8C68133D9AE57E1D4A64736F PUSH13 0x63430008150033000000000000 "
				},
				"gasEstimates": {
					"creation": {
						"codeDepositCost": "54600",
						"executionCost": "22208",
						"totalCost": "76808"
					},
					"external": {
						"getData()": "2410",
						"getData2()": "367",
						"getData3()": "345"
					}
				},
				"methodIdentifiers": {
					"getData()": "3bc5de30",
					"getData2()": "a898fd70",
					"getData3()": "92f51def"
				}
			},
			"storageLayout": {
				"storage": [
					{
						"astId": 4,
						"contract": "ex12/ex12.sol:VariableRange",
						"label": "data",
						"offset": 0,
						"slot": "0",
						"type": "t_uint256"
					}
				],
				"types": {
					"t_uint256": {
						"encoding": "inplace",
						"label": "uint256",
						"numberOfBytes": "32"
					}
				}
			},
			"userdoc": {
				"kind": "user",
				"methods": {},
				"version": 1
			}
		}
	}
}