{
	"data": {
		"bytecode": {
			"linkReferences": {},
			"object": "6080604052600a5f806101000a81548160ff021916908360ff160217905550348015610029575f80fd5b5060e8806100365f395ff3fe6080604052348015600e575f80fd5b50600436106030575f3560e01c80630dbe671f14603457806376fe0d6214604e575b5f80fd5b603a6056565b60405160459190609b565b60405180910390f35b60546066565b005b5f8054906101000a900460ff1681565b600f5f806101000a81548160ff021916908360ff160217905550565b5f60ff82169050919050565b6095816082565b82525050565b5f60208201905060ac5f830184608e565b9291505056fea26469706673582212202035f1f914aed4f77efac8e26362fb996d0a89add1aa64e76da884dd66502c2064736f6c63430008150033",
			"opcodes": "PUSH1 0x80 PUSH1 0x40 MSTORE PUSH1 0xA PUSH0 DUP1 PUSH2 0x100 EXP DUP2 SLOAD DUP2 PUSH1 0xFF MUL NOT AND SWAP1 DUP4 PUSH1 0xFF AND MUL OR SWAP1 SSTORE POP CALLVALUE DUP1 ISZERO PUSH2 0x29 JUMPI PUSH0 DUP1 REVERT JUMPDEST POP PUSH1 0xE8 DUP1 PUSH2 0x36 PUSH0 CODECOPY PUSH0 RETURN INVALID PUSH1 0x80 PUSH1 0x40 MSTORE CALLVALUE DUP1 ISZERO PUSH1 0xE JUMPI PUSH0 DUP1 REVERT JUMPDEST POP PUSH1 0x4 CALLDATASIZE LT PUSH1 0x30 JUMPI PUSH0 CALLDATALOAD PUSH1 0xE0 SHR DUP1 PUSH4 0xDBE671F EQ PUSH1 0x34 JUMPI DUP1 PUSH4 0x76FE0D62 EQ PUSH1 0x4E JUMPI JUMPDEST PUSH0 DUP1 REVERT JUMPDEST PUSH1 0x3A PUSH1 0x56 JUMP JUMPDEST PUSH1 0x40 MLOAD PUSH1 0x45 SWAP2 SWAP1 PUSH1 0x9B JUMP JUMPDEST PUSH1 0x40 MLOAD DUP1 SWAP2 SUB SWAP1 RETURN JUMPDEST PUSH1 0x54 PUSH1 0x66 JUMP JUMPDEST STOP JUMPDEST PUSH0 DUP1 SLOAD SWAP1 PUSH2 0x100 EXP SWAP1 DIV PUSH1 0xFF AND DUP2 JUMP JUMPDEST PUSH1 0xF PUSH0 DUP1 PUSH2 0x100 EXP DUP2 SLOAD DUP2 PUSH1 0xFF MUL NOT AND SWAP1 DUP4 PUSH1 0xFF AND MUL OR SWAP1 SSTORE POP JUMP JUMPDEST PUSH0 PUSH1 0xFF DUP3 AND SWAP1 POP SWAP2 SWAP1 POP JUMP JUMPDEST PUSH1 0x95 DUP2 PUSH1 0x82 JUMP JUMPDEST DUP3 MSTORE POP POP JUMP JUMPDEST PUSH0 PUSH1 0x20 DUP3 ADD SWAP1 POP PUSH1 0xAC PUSH0 DUP4 ADD DUP5 PUSH1 0x8E JUMP JUMPDEST SWAP3 SWAP2 POP POP JUMP INVALID LOG2 PUSH5 0x6970667358 0x22 SLT KECCAK256 KECCAK256 CALLDATALOAD CALL 0xF9 EQ 0xAE 0xD4 0xF7 PUSH31 0xFAC8E26362FB996D0A89ADD1AA64E76DA884DD66502C2064736F6C63430008 ISZERO STOP CALLER "
		},
		"gasEstimates": {
			"creation": {
				"codeDepositCost": "46400",
				"executionCost": "24363",
				"totalCost": "70763"
			},
			"external": {
				"a()": "2441",
				"changeDate()": "24409"
			}
		},
		"methodIdentifiers": {
			"a()": "0dbe671f",
			"changeDate()": "76fe0d62"
		}
	},
	"abi": [
		{
			"inputs": [],
			"name": "a",
			"outputs": [
				{
					"internalType": "uint8",
					"name": "",
					"type": "uint8"
				}
			],
			"stateMutability": "view",
			"type": "function"
		},
		{
			"inputs": [],
			"name": "changeDate",
			"outputs": [],
			"stateMutability": "nonpayable",
			"type": "function"
		}
	]
}